{
  "contractName": "main_contract",
  "abi": [
    {
      "constant": true,
      "inputs": [
        {
          "name": "",
          "type": "address"
        }
      ],
      "name": "balances",
      "outputs": [
        {
          "name": "",
          "type": "uint256"
        }
      ],
      "payable": false,
      "stateMutability": "view",
      "type": "function",
      "signature": "0x27e235e3"
    },
    {
      "constant": true,
      "inputs": [
        {
          "name": "",
          "type": "uint256"
        }
      ],
      "name": "user",
      "outputs": [
        {
          "name": "userID",
          "type": "uint256"
        },
        {
          "name": "username",
          "type": "string"
        }
      ],
      "payable": false,
      "stateMutability": "view",
      "type": "function",
      "signature": "0x553275be"
    },
    {
      "constant": true,
      "inputs": [
        {
          "name": "",
          "type": "uint256"
        }
      ],
      "name": "transact",
      "outputs": [
        {
          "name": "tradeID",
          "type": "uint256"
        },
        {
          "name": "price",
          "type": "uint256"
        },
        {
          "name": "amount",
          "type": "uint256"
        },
        {
          "name": "total",
          "type": "uint256"
        },
        {
          "name": "tradeType",
          "type": "string"
        }
      ],
      "payable": false,
      "stateMutability": "view",
      "type": "function",
      "signature": "0x650b7609"
    },
    {
      "anonymous": false,
      "inputs": [
        {
          "indexed": false,
          "name": "userID",
          "type": "uint256"
        },
        {
          "indexed": false,
          "name": "username",
          "type": "string"
        }
      ],
      "name": "UserCreated",
      "type": "event",
      "signature": "0xee305ea110dac8054a0415771cedeb3372a69ef1c3916abb2f5e1b3658d77c0e"
    },
    {
      "anonymous": false,
      "inputs": [
        {
          "indexed": false,
          "name": "tradeID",
          "type": "uint256"
        },
        {
          "indexed": false,
          "name": "price",
          "type": "uint256"
        },
        {
          "indexed": false,
          "name": "amount",
          "type": "uint256"
        },
        {
          "indexed": false,
          "name": "total",
          "type": "uint256"
        },
        {
          "indexed": false,
          "name": "tradeType",
          "type": "string"
        }
      ],
      "name": "TransactCreated",
      "type": "event",
      "signature": "0x5f34e4ded8b16648b30bb2e0c325a097177ef92fe28c6aa8ce4197b8583ae294"
    },
    {
      "constant": false,
      "inputs": [
        {
          "name": "username",
          "type": "string"
        }
      ],
      "name": "addUser",
      "outputs": [],
      "payable": false,
      "stateMutability": "nonpayable",
      "type": "function",
      "signature": "0x18b8275a"
    },
    {
      "constant": false,
      "inputs": [
        {
          "name": "price",
          "type": "uint256"
        },
        {
          "name": "amount",
          "type": "uint256"
        },
        {
          "name": "tradeType",
          "type": "string"
        }
      ],
      "name": "addTransact",
      "outputs": [],
      "payable": false,
      "stateMutability": "nonpayable",
      "type": "function",
      "signature": "0x968da178"
    },
    {
      "constant": false,
      "inputs": [],
      "name": "buyToken",
      "outputs": [],
      "payable": true,
      "stateMutability": "payable",
      "type": "function",
      "signature": "0xa4821719"
    },
    {
      "constant": false,
      "inputs": [],
      "name": "sellToken",
      "outputs": [],
      "payable": true,
      "stateMutability": "payable",
      "type": "function",
      "signature": "0x9769f0b0"
    },
    {
      "constant": true,
      "inputs": [],
      "name": "getBalance",
      "outputs": [
        {
          "name": "",
          "type": "uint256"
        }
      ],
      "payable": false,
      "stateMutability": "view",
      "type": "function",
      "signature": "0x12065fe0"
    }
  ],
  "bytecode": "0x60806040526000600355600060045534801561001a57600080fd5b50610ba28061002a6000396000f3fe60806040526004361061008e576000357c0100000000000000000000000000000000000000000000000000000000900463ffffffff16806312065fe01461009357806318b8275a146100be57806327e235e314610144578063553275be146101a9578063650b760914610264578063968da178146103345780639769f0b0146103ce578063a4821719146103d8575b600080fd5b34801561009f57600080fd5b506100a86103e2565b6040518082815260200191505060405180910390f35b3480156100ca57600080fd5b50610142600480360360208110156100e157600080fd5b81019080803590602001906401000000008111156100fe57600080fd5b82018360208201111561011057600080fd5b8035906020019184600183028401116401000000008311171561013257600080fd5b9091929391929390505050610428565b005b34801561015057600080fd5b506101936004803603602081101561016757600080fd5b81019080803573ffffffffffffffffffffffffffffffffffffffff169060200190929190505050610545565b6040518082815260200191505060405180910390f35b3480156101b557600080fd5b506101e2600480360360208110156101cc57600080fd5b810190808035906020019092919050505061055d565b6040518083815260200180602001828103825283818151815260200191508051906020019080838360005b8381101561022857808201518184015260208101905061020d565b50505050905090810190601f1680156102555780820380516001836020036101000a031916815260200191505b50935050505060405180910390f35b34801561027057600080fd5b5061029d6004803603602081101561028757600080fd5b8101908080359060200190929190505050610619565b6040518086815260200185815260200184815260200183815260200180602001828103825283818151815260200191508051906020019080838360005b838110156102f55780820151818401526020810190506102da565b50505050905090810190601f1680156103225780820380516001836020036101000a031916815260200191505b50965050505050505060405180910390f35b34801561034057600080fd5b506103cc6004803603606081101561035757600080fd5b8101908080359060200190929190803590602001909291908035906020019064010000000081111561038857600080fd5b82018360208201111561039a57600080fd5b803590602001918460018302840111640100000000831117156103bc57600080fd5b90919293919293905050506106e7565b005b6103d6610943565b005b6103e0610a65565b005b60008060003373ffffffffffffffffffffffffffffffffffffffff1673ffffffffffffffffffffffffffffffffffffffff16815260200190815260200160002054905090565b6003600081548092919060010191905055506040805190810160405280600354815260200183838080601f016020809104026020016040519081016040528093929190818152602001838380828437600081840152601f19601f820116905080830192505050505050508152506001600060035481526020019081526020016000206000820151816000015560208201518160010190805190602001906104d0929190610ad1565b509050507fee305ea110dac8054a0415771cedeb3372a69ef1c3916abb2f5e1b3658d77c0e600354838360405180848152602001806020018281038252848482818152602001925080828437600081840152601f19601f82011690508083019250505094505050505060405180910390a15050565b60006020528060005260406000206000915090505481565b6001602052806000526040600020600091509050806000015490806001018054600181600116156101000203166002900480601f01602080910402602001604051908101604052809291908181526020018280546001816001161561010002031660029004801561060f5780601f106105e45761010080835404028352916020019161060f565b820191906000526020600020905b8154815290600101906020018083116105f257829003601f168201915b5050505050905082565b6002602052806000526040600020600091509050806000015490806001015490806002015490806003015490806004018054600181600116156101000203166002900480601f0160208091040260200160405190810160405280929190818152602001828054600181600116156101000203166002900480156106dd5780601f106106b2576101008083540402835291602001916106dd565b820191906000526020600020905b8154815290600101906020018083116106c057829003601f168201915b5050505050905085565b60008411151561075f576040517f08c379a00000000000000000000000000000000000000000000000000000000081526004018080602001828103825260138152602001807f496e76616c696420696e7075742076616c75650000000000000000000000000081525060200191505060405180910390fd5b6000831115156107d7576040517f08c379a00000000000000000000000000000000000000000000000000000000081526004018080602001828103825260138152602001807f496e76616c696420696e7075742076616c75650000000000000000000000000081525060200191505060405180910390fd5b60046000815480929190600101919050555060a0604051908101604052806004548152602001858152602001848152602001848602815260200183838080601f016020809104026020016040519081016040528093929190818152602001838380828437600081840152601f19601f820116905080830192505050505050508152506002600060045481526020019081526020016000206000820151816000015560208201518160010155604082015181600201556060820151816003015560808201518160040190805190602001906108b2929190610ad1565b509050507f5f34e4ded8b16648b30bb2e0c325a097177ef92fe28c6aa8ce4197b8583ae2946004548585868802868660405180878152602001868152602001858152602001848152602001806020018281038252848482818152602001925080828437600081840152601f19601f82011690508083019250505097505050505050505060405180910390a150505050565b6000600260006004548152602001908152602001600020600201549050806000803373ffffffffffffffffffffffffffffffffffffffff1673ffffffffffffffffffffffffffffffffffffffff1681526020019081526020016000205410151515610a16576040517f08c379a000000000000000000000000000000000000000000000000000000000815260040180806020018281038252601c8152602001807f496e73756666696369656e742062616c616e636520746f2073656c6c0000000081525060200191505060405180910390fd5b806000803373ffffffffffffffffffffffffffffffffffffffff1673ffffffffffffffffffffffffffffffffffffffff1681526020019081526020016000206000828254039250508190555050565b6000600260006004548152602001908152602001600020600201549050806000803373ffffffffffffffffffffffffffffffffffffffff1673ffffffffffffffffffffffffffffffffffffffff1681526020019081526020016000206000828254019250508190555050565b828054600181600116156101000203166002900490600052602060002090601f016020900481019282601f10610b1257805160ff1916838001178555610b40565b82800160010185558215610b40579182015b82811115610b3f578251825591602001919060010190610b24565b5b509050610b4d9190610b51565b5090565b610b7391905b80821115610b6f576000816000905550600101610b57565b5090565b9056fea165627a7a7230582055cdde2b43cc9bec4005d763d6732a8d94e5b2609b4e7671e831f2dec80c95030029",
  "source": "pragma solidity >=0.4.22 <0.9.0;\n\ncontract main_contract {\n    mapping(address => uint256) public balances;\n    mapping(uint => User) public user;  //mapping to keep track of user record\n    mapping(uint => Transact) public transact;  //mapping to keep track of transactions\n\n    uint private _userID = 0;\n    uint private _tradeID = 0;\n\n    struct User {\n        uint userID;\n        string username;\n    }\n\n    event UserCreated(\n        uint userID,\n        string username\n    );\n\n    struct Transact {\n        uint tradeID;\n        uint price;\n        uint amount;\n        uint total;\n        string tradeType;\n    }\n\n    event TransactCreated(\n        uint tradeID,\n        uint price,\n        uint amount,\n        uint total,\n        string tradeType\n    );\n\n    function addUser(string calldata username) external {\n        _userID ++;\n        user[_userID] = User(_userID, username);\n        emit UserCreated(_userID, username);\n    }\n\n    function addTransact(uint price, uint amount, string calldata tradeType) external {\n        require(price > 0, \"Invalid input value\");\n        require(amount > 0, \"Invalid input value\");\n        _tradeID++;\n        transact[_tradeID] = Transact(_tradeID, price, amount, price*amount, tradeType);\n        emit TransactCreated(_tradeID, price, amount, price*amount, tradeType);\n    }\n\n    //called when user press BUY button\n    function buyToken() external payable {\n        uint amount = transact[_tradeID].amount;\n        balances[msg.sender] += amount;\n    }\n\n    //called when user press SELL button\n    function sellToken() external payable {\n        uint amount = transact[_tradeID].amount;\n        require(balances[msg.sender] >= amount, \"Insufficient balance to sell\");\n        balances[msg.sender] -= amount;\n    }\n\n    function getBalance() external view returns(uint256){\n        return balances[msg.sender];\n    }\n}",
  "sourcePath": "/Users/ngoson/Downloads/inno project/Innovation_project/smart_contract/contracts/main_contract.sol",
  "compiler": {
    "name": "solc",
    "version": "0.5.0+commit.1d4f565a.Emscripten.clang"
  },
  "schemaVersion": "3.0.1",
  "updatedAt": "2023-10-13T17:26:44.482Z",
  "devdoc": {
    "methods": {}
  },
  "userdoc": {
    "methods": {}
  }
}